:020000040000fa
:080000000002040000000000f2
:020000040000fa
:040008000e030000e3
:020000040000fa
:04000c00f6020000f8
:020000040000fa
:04001000fc020000ee
:020000040000fa
:0400140002030000e3
:020000040000fa
:0400180008030000d9
:020000040000fa
:04001c000e030000cf
:020000040000fa
:040020000e030000cb
:020000040000fa
:040024000e030000c7
:020000040000fa
:040028000e030000c3
:020000040000fa
:04002c000e030000bf
:020000040000fa
:040030000e030000bb
:020000040000fa
:040034000e030000b7
:020000040000fa
:040038000e030000b3
:020000040000fa
:04003c000e030000af
:020000040000fa
:040040000e030000ab
:020000040000fa
:040044000e030000a7
:020000040000fa
:040048000e030000a3
:020000040000fa
:04004c000e0300009f
:020000040000fa
:040050000e0300009b
:020000040000fa
:040054000e03000097
:020000040000fa
:040058000e03000093
:020000040000fa
:04005c000e0300008f
:020000040000fa
:040060000e0300008b
:020000040000fa
:040064000e03000087
:020000040000fa
:040068000e03000083
:020000040000fa
:04006c000e0300007f
:020000040000fa
:040070000e0300007b
:020000040000fa
:040074000e03000077
:020000040000fa
:04007800de020000a4
:020000040000fa
:04007c000e0300006f
:020000040000fa
:040080000e0300006b
:020000040000fa
:040084000e03000067
:020000040000fa
:040088000e03000063
:020000040000fa
:04008c000e0300005f
:020000040000fa
:040090000e0300005b
:020000040000fa
:040094000e03000057
:020000040000fa
:040098000e03000053
:020000040000fa
:04009c00c802000096
:020000040000fa
:0400a0000e0300004b
:020000040000fa
:0400a4000e03000047
:020000040000fa
:0400a8000e03000043
:020000040000fa
:0400ac000e0300003f
:020000040000fa
:0400b0000e0300003b
:020000040000fa
:0400b4000e03000037
:020000040000fa
:0400b8000e03000033
:020000040000fa
:0400bc000e0300002f
:020000040000fa
:0400c0000e0300002b
:020000040000fa
:0400c4000e03000027
:020000040000fa
:0400c8000e03000023
:020000040000fa
:0400cc000e0300001f
:020000040000fa
:0400d0000e0300001b
:020000040000fa
:0400d4000e03000017
:020000040000fa
:0400d8000e03000013
:020000040000fa
:0400dc000e0300000f
:020000040000fa
:0400e0000e0300000b
:020000040000fa
:0400e4000e03000007
:020000040000fa
:0400e8000e03000003
:020000040000fa
:0400ec000e030000ff
:020000040000fa
:0400f0000e030000fb
:020000040000fa
:0400f4000e030000f7
:020000040000fa
:0400f8000e030000f3
:020000040000fa
:0400fc000e030000ef
:020000040000fa
:040100000e030000ea
:020000040000fa
:040104000e030000e6
:020000040000fa
:040108000e030000e2
:020000040000fa
:04010c000e030000de
:020000040000fa
:040110000e030000da
:020000040000fa
:040114000e030000d6
:020000040000fa
:040118000e030000d2
:020000040000fa
:04011c000e030000ce
:020000040000fa
:040120000e030000ca
:020000040000fa
:040124000e030000c6
:020000040000fa
:040128000e030000c2
:020000040000fa
:04012c000e030000be
:020000040000fa
:040130000e030000ba
:020000040000fa
:040134000e030000b6
:020000040000fa
:040138000e030000b2
:020000040000fa
:04013c000e030000ae
:020000040000fa
:040140000e030000aa
:020000040000fa
:040144000e030000a6
:020000040000fa
:040148000e030000a2
:020000040000fa
:04014c000e0300009e
:020000040000fa
:040150000e0300009a
:020000040000fa
:040154000e03000096
:020000040000fa
:040158000e03000092
:020000040000fa
:04015c000e0300008e
:020000040000fa
:040160000e0300008a
:020000040000fa
:040164000e03000086
:020000040000fa
:040168000e03000082
:020000040000fa
:04016c000e0300007e
:020000040000fa
:040170000e0300007a
:020000040000fa
:040174000e03000076
:020000040000fa
:040178000e03000072
:020000040000fa
:04017c000e0300006e
:020000040000fa
:040180000e0300006a
:020000040000fa
:040184000e03000066
:020000040000fa
:040188000e03000062
:020000040000fa
:04018c000e0300005e
:020000040000fa
:040190000e0300005a
:020000040000fa
:040194000e03000056
:020000040000fa
:040198000e03000052
:020000040000fa
:04019c000e0300004e
:020000040000fa
:0401a0000e0300004a
:020000040000fa
:0401a4000e03000046
:020000040000fa
:0401a8000e03000042
:020000040000fa
:0401ac000e0300003e
:020000040000fa
:040208000e030000e1
:020000040000fa
:04020c000e030000dd
:020000040000fa
:040210000e030000d9
:020000040000fa
:040214000e030000d5
:020000040000fa
:040218000e030000d1
:020000040000fa
:04021c000e030000cd
:020000040000fa
:040220000e030000c9
:020000040000fa
:040224000e030000c5
:020000040000fa
:040228000e030000c1
:020000040000fa
:04022c000e030000bd
:020000040000fa
:040230000e030000b9
:020000040000fa
:040234000e030000b5
:020000040000fa
:040238000e030000b1
:020000040000fa
:04023c000e030000ad
:020000040000fa
:040240000e030000a9
:020000040000fa
:040244000e030000a5
:020000040000fa
:040248000e030000a1
:020000040000fa
:04024c000e0300009d
:020000040000fa
:040250000e03000099
:020000040000fa
:040254000e03000095
:020000040000fa
:040258000e03000091
:020000040000fa
:04025c000e0300008d
:020000040000fa
:040260000e03000089
:020000040000fa
:040264000e03000085
:020000040000fa
:040268000e03000081
:020000040000fa
:04026c000e0300007d
:020000040000fa
:040270000e03000079
:020000040000fa
:040274000e03000075
:020000040000fa
:040278000e03000071
:020000040000fa
:04027c000e0300006d
:020000040000fa
:040280000e03000069
:020000040000fa
:040284000e03000065
:020000040000fa
:040288000e03000061
:020000040000fa
:04028c000e0300005d
:020000040000fa
:040290000e03000059
:020000040000fa
:040294000e03000055
:020000040000fa
:040298000e03000051
:020000040000fa
:04029c000e0300004d
:020000040000fa
:0402a0000e03000049
:020000040000fa
:0402a4000e03000045
:020000040000fa
:0402a8000e03000041
:020000040000fa
:0402ac000e0300003d
:020000040000fa
:0402b0000e03000039
:020000040000fa
:0402b4000e03000035
:020000040000fa
:0402b8000e03000031
:020000040000fa
:0402bc000e0300002d
:020000040000fa
:0402c0000e03000029
:020000040000fa
:0402c4000e03000025
:020000040000fa
:0402c8000e03000021
:020000040000fa
:0402cc000e0300001d
:020000040000fa
:0402d0000e03000019
:020000040000fa
:0402d4000e03000015
:020000040000fa
:0402d8000e03000011
:020000040000fa
:0402dc000e0300000d
:020000040000fa
:0402e0000e03000009
:020000040000fa
:0402e4000e03000005
:020000040000fa
:0402e8000e03000001
:020000040000fa
:0402ec000e030000fd
:020000040000fa
:0402f0000e030000f9
:020000040000fa
:0402f4000e030000f5
:020000040000fa
:0402f8000e030000f1
:020000040000fa
:0402fc000e030000ed
:020000040000fa
:040300000e030000e8
:020000040000fa
:040304000e030000e4
:020000040000fa
:040308000e030000e0
:020000040000fa
:04030c000e030000dc
:020000040000fa
:040310000e030000d8
:020000040000fa
:040314000e030000d4
:020000040000fa
:040318000e030000d0
:020000040000fa
:04031c000e030000cc
:020000040000fa
:040320000e030000c8
:020000040000fa
:040324000e030000c4
:020000040000fa
:040328000e030000c0
:020000040000fa
:04032c000e030000bc
:020000040000fa
:040330000e030000b8
:020000040000fa
:040334000e030000b4
:020000040000fa
:040338000e030000b0
:020000040000fa
:04033c000e030000ac
:020000040000fa
:040340000e030000a8
:020000040000fa
:040344000e030000a4
:020000040000fa
:040348000e030000a0
:020000040000fa
:04034c000e0300009c
:020000040000fa
:040350000e03000098
:020000040000fa
:040354000e03000094
:020000040000fa
:040358000e03000090
:020000040000fa
:04035c000e0300008c
:020000040000fa
:040360000e03000088
:020000040000fa
:040364000e03000084
:020000040000fa
:040368000e03000080
:020000040000fa
:04036c000e0300007c
:020000040000fa
:040370000e03000078
:020000040000fa
:040374000e03000074
:020000040000fa
:040378000e03000070
:020000040000fa
:04037c000e0300006c
:020000040000fa
:040380000e03000068
:020000040000fa
:040384000e03000064
:020000040000fa
:040388000e03000060
:020000040000fa
:04038c000e0300005c
:020000040000fa
:040390000e03000058
:020000040000fa
:040394000e03000054
:020000040000fa
:040398000e03000050
:020000040000fa
:04039c000e0300004c
:020000040000fa
:0403a0000e03000048
:020000040000fa
:0403a4000e03000044
:020000040000fa
:0403a8000e03000040
:020000040000fa
:0403ac000e0300003c
:020000040000fa
:100400006f8020000eff20000e0188000000000019
:10041000000020000000e000020032000001200087
:1004200020028800140007007e0007000000e000a2
:1004300003003a00407f2000010020000200370046
:100440000000200001002000810f70000100320038
:1004500014000700000020000000e000020032004d
:1004600000000200000000008c07020000000000f5
:100470000040da000000fe004440a9000000200017
:100480000000e0000300320000002000a00188000e
:100490004440a800000006008a1f78008b1f7800e7
:1004a0000000060091018800800478000000eb0045
:1004b0001a003700e284440032a0b4009905ba0063
:1004c000e284440032a0b4009906ba00e2844400f9
:1004d00032a0b4000006eb00476fde00fd07b2005b
:1004e000636ce10003003a00ebff07000000eb0043
:1004f0000a003700606ce10004003a00005deb0088
:100500008b05e900fdff3e00040037006168e10053
:10051000010032000086eb000b00070019c7ba008b
:100520001905ba000e04e00003003a000a00e000da
:10053000e0ff3a0000000600fe07b2009e018800be
:100540008a047800f5ff3700395dba008b05e900b1
:100550000c003200295dba008b05e900080032006a
:100560000c00e00003003a00e284440032a0b40032
:10057000f5ff370019ddba008b05e900faff3a00f4
:100580008904e800e184440032a0b40000000600c1
:100590003400f800881f780008002000a8018800b7
:1005a0004f0478000000fa000428ef0087a0a9009b
:1005b0000080fa003400f90000400600801f780037
:1005c0003400f80000002000a00188000000fa00bc
:1005d00020002000204088008680a9000080fa00ca
:1005e0003400f9004f007800004006000000fa00d7
:1005f0008020a900ffff37000000fa008060a900fa
:10060000ffff37000000fa008040a900ffff37001d
:100610000000fa008080a900ffff37000000fa0008
:10062000ffff3700000005000001be001b000700af
:100630000470a70003f0a10003f8a30013003a0020
:100640006509b10010003200090035006928e10099
:1006500002003500010028000000050000004000f5
:10066000818048008502e900fcff3a000000060096
:10067000f88f4200050035008100d1000080d300d2
:100680008502e800fcff3a00000006008000eb0055
:10069000000005006011b80049003700c70ade00fd
:1006a000f107b200f50fb20008003200e1cf4200be
:1006b000020032000170a00024000500810f7000cc
:1006c000010032000408050044000500810f70009d
:1006d00002003a00140005008502e9000000400015
:1006e00081c04800fcff3b000170a0002400050011
:1006f000889fbe008a9fbe008c1f7800850007007f
:100700008c00330003866c006450e100240032004a
:100710006420e100270032006150e1002200320035
:100720006120e100210032008b854200eb07b1001f
:100730000134b800003ab8000804420089844a0035
:10074000013ab8000030b8008880400009014a0032
:10075000040033000000400081804800020149008d
:100760008b05e900c909dd0083017000010032003a
:1007700013002000c814de004814dd004709de0025
:100780001200b200c808de00088470003b000700b9
:1007900001f0a1000cf0a70001f0a0006e003700ee
:1007a0006120e100700032000801be000200be00be
:1007b000f7ff37006150e100fcff3a006a003700a4
:1007c000889fbe008a9fbe000082700004027100f4
:1007d00004827100260032000004be000200be0048
:1007e0006011b8006b092000950220000182cf0043
:1007f0000a0039000541b1000082cf00070039002e
:100800000541b1000982cf00040039000541b10063
:100810000882cf00010039000541b10005425200b5
:10082000120032000a003b00828171006101640005
:100830008100d1000080d3008984d3000884d300d4
:100840008b05e8000442e800f7ff3a000700370094
:100850000804440089844c0000004800818048005e
:100860008b05e9000442e900f9ff3a0003000700a4
:100870004f05be004f04be000000060081002000ae
:10088000618055000b003d000b00200061fe2f0031
:100890000100e1001d0034008281710061016400eb
:1008a0008904d1000884d3000000e800faff3a0070
:1008b000710020006100640003007000020060000d
:1008c0000900320061044400e0844c000988a5005e
:1008d000050032008b05e8006808e10002003a00dc
:1008e0008904d1000884d300f20f20000258e100ef
:1008f00005003d00c75ddd00f907b2008980750085
:1009000008007800000006000bf827008b00780034
:10091000000005000004be0060ff07000003be00e9
:100920000405be000200be005cff0700844f750096
:10093000000006000200be006450e1000500360021
:100940006420e100020036000968a30001003a00bb
:100950000800be000160a0004f0678004f05be00f1
:100960004f04be0000000600f0ff2f00f1ff27003b
:04097000f9ff370054
:020000040000fa
:100974000000fa0041a3a9004043a9004143a90093
:10098400011a8000f0cf2f0000806000001a880058
:10099400011a8000f0f02f0000806000001a880027
:1009a4004223ef0020002000201a880000012000cc
:1009b400401a88005023ef000080fa00000006006f
:1009c4000200fa00411a800000fe2f00008060003f
:1009d4000040a000401a880041e3a8004023a8007a
:1009e40000dc250001002000700107004023a9005d
:1009f40000000000001a8000610060000000e000b8
:100a0400fcff320001188000010f780041e3a900c7
:100a14001e0078000080fa00000006000200fa00c0
:100a2400411a800000fe2f00008060002001b30006
:100a3400401a880041e3a8004023a80000dc2500f8
:100a440001002000590107004023a9000000000014
:100a5400001a8000610060000000e000fcff32002a
:100a640001188000010f780041e3a9001e007800fe
:100a74000080fa00000006000800fa00d0ff07001a
:100a8400000f7800ceff070010079800ccff070086
:100a9400200798001e0090009e0040002e00900049
:100aa40080804000b0aa2a000008b8000100d100ec
:100ab400300798003e0090000080fa000000060015
:100ac4000600fa0010079800210798009e00900085
:100ad400010f78009e00900010032000808f5000ca
:100ae4002a003600ae0090001e0078004a0007007d
:100af4002007980020408000e20f500011003200cf
:100b04001e0078008000eb00e1fe07000002be003a
:100b140000408000114080000001be000400be00bf
:100b2400f2fe0700bffe0700000078008000780096
:100b34000000eb0090000700100020002040880017
:100b44003200370020408000e20f50002f003a00ae
:100b54002e0090008000eb00cdfe07000002be00d6
:100b640000408000114080000001be000400be006f
:100b7400defe0700abfe070000007800800078006e
:100b8400100020007c000700200037009e00900029
:100b940010032000808f50001c003e002040800085
:100ba4000000e000110032002e0090008000eb00f5
:100bb400b7fe07000002be00004080001140800024
:100bc4000001be000400be00c8fe070095fe070039
:100bd4000000780080007800100020006600070004
:100be40010002000204088000800370020408000ca
:100bf4000000e00005003a008000eb002000200027
:100c04005d000700401f2000200798002e00900080
:100c14000080fa00000006000400fa00000f7800cb
:100c2400110798001e0090009e007800808f5000ed
:100c3400020036001e007800010037001e009000fc
:100c44000080fa00000006000000fa004081a900bc
:100c5400010a800000ff2f00008060005000b300f4
:100c6400000a880040a1a9004161a900010a80008e
:100c7400f08f2f0000806000000a8800010a8000c5
:100c8400f0f32f0000806000000a880042e1a90010
:100c9400110a800000fe2f0000806000100a880006
:100ca4004701a800510a8000f08f2f0000806000e7
:100cb400500a88004aa1a9005021ef00a00a200090
:100cc400a00a8800a00a2000c00a8800a00a200008
:100cd400e00a880041e1a8000080fa000000060054
:100ce4000000fa006481a900210b800000ff2f009e
:100cf400008060005000b300200b880064a1a900ac
:100d04006561a900210b8000f08f2f000080600036
:100d1400200b8800210b8000f0f32f00008060007e
:100d2400200b880066e1a900310b800000fe2f0033
:100d340000806000300b88006b01a800710b8000fc
:100d4400f08f2f0000806000700b88006ea1a90056
:100d54007421ef00a00a2000c00b8800a00a200024
:100d6400e00b8800a00a2000000c880065e1a800c0
:100d74000080fa00000006000400fa00000f78006a
:100d8400110798001e0078000000e00009003a00f6
:100d940041e1a8009e009000b0aa2a000008b80013
:100da4004208de00c00a88007c21ef0065e1a8004b
:100db4000e0037001e007800e10f500009003a00d1
:100dc4005821ef0041e1a80065e1a8009e009000d1
:100dd400b0aa2a000008b8004208de00e00b880030
:100de4000200370041e1a90065e1a9000080fa0092
:100df400000006000400fa00000f780011079800b4
:100e0400400620009e007800808f500020003600ad
:100e1400601220009e007800808f5000040036008d
:100e2400f01420009e007800808f500012003600dd
:100e34009e00900000192000808f500005003600ad
:100e44000000200001f023000040880011408800c9
:100e54000f0037009e00900000192000808f500082
:100e64000a003e000000200001f823000040880032
:100e740011408800060037000000200001f823001c
:100e84000040880011408800010037000000000085
:100e94000080fa00000006000000fa00c982a800e1
:100ea400e384a9008240a90087a0a90097a0a80014
:100eb400b2c0a800b2a0a800b280a900c9c2a8000c
:100ec400e3c4a9008220a9008680a9009680a80016
:100ed400ae40a800ae20a800ae00a800e004a9001f
:100ee400c002a900c8e2a900c962a900c082a80082
:100ef400e084a800c8c2a800e2c4a800c902a800ef
:100f0400e304a800c922a800e324a8000080fa0092
:100f1400000006000600fa000000eb00100798002d
:100f24000000eb0020079800401f2000000f78000d
:100f3400d9ff070044ff070069ff07008cfe070084
:100f4400cdfe070010079800b4fe070020079800a4
:100f54009e0090002e009000a6ff07009e007800df
:100f64001e009000d6fe0700000f7800f4ff370043
:100f74000000fa000421ef000021ef000080eb00e4
:100f84001008880021058000f0ff28000080600020
:100f940000c0a000200588008460a9009460a80017
:0c0fa40005e1a9000080fa000000060032
:020000040000fa
:100fb000f03fb1000180b10006003500ee030900ea
:100fc00000000000403fb1000180b100fbff3d0088
:100fd0001000b000203fb000020035000080090082
:080fe000000000000000060003
:020000040000fa
:100fe80004080000020000000000000000080000e3
:100ff8000400000002000000000080003f00000024
:0410080000000000e4
:020000040000fa
:0c100c000000fa000080fa00000006005e
:020000040000fa
:0200000401f009
:04000000ffff0000fe
:020000040000fa
:0200000401f009
:04000800ffff0000f6
:020000040000fa
:0200000401f009
:04000c00f8ff0000f9
:020000040000fa
:0200000401f009
:04001000bfff00002e
:020000040000fa
:0200000401f009
:04001400ffff0000ea
:020000040000fa
:0200000401f009
:04001800ffff0000e6
:020000040000fa
:0200000401f009
:04001c00ffff0000e2
:00000001FF
