:020000040000fa
:080000000002040000000000f2
:020000040000fa
:040008000e030000e3
:020000040000fa
:04000c00f6020000f8
:020000040000fa
:04001000fc020000ee
:020000040000fa
:0400140002030000e3
:020000040000fa
:0400180008030000d9
:020000040000fa
:04001c000e030000cf
:020000040000fa
:040020000e030000cb
:020000040000fa
:040024000e030000c7
:020000040000fa
:040028000e030000c3
:020000040000fa
:04002c000e030000bf
:020000040000fa
:040030000e030000bb
:020000040000fa
:040034000e030000b7
:020000040000fa
:040038000e030000b3
:020000040000fa
:04003c000e030000af
:020000040000fa
:040040000e030000ab
:020000040000fa
:040044000e030000a7
:020000040000fa
:040048000e030000a3
:020000040000fa
:04004c000e0300009f
:020000040000fa
:040050000e0300009b
:020000040000fa
:040054000e03000097
:020000040000fa
:040058000e03000093
:020000040000fa
:04005c000e0300008f
:020000040000fa
:040060000e0300008b
:020000040000fa
:040064000e03000087
:020000040000fa
:040068000e03000083
:020000040000fa
:04006c000e0300007f
:020000040000fa
:040070000e0300007b
:020000040000fa
:040074000e03000077
:020000040000fa
:04007800de020000a4
:020000040000fa
:04007c000e0300006f
:020000040000fa
:040080000e0300006b
:020000040000fa
:040084000e03000067
:020000040000fa
:040088000e03000063
:020000040000fa
:04008c000e0300005f
:020000040000fa
:040090000e0300005b
:020000040000fa
:040094000e03000057
:020000040000fa
:040098000e03000053
:020000040000fa
:04009c00c802000096
:020000040000fa
:0400a0000e0300004b
:020000040000fa
:0400a4000e03000047
:020000040000fa
:0400a8000e03000043
:020000040000fa
:0400ac000e0300003f
:020000040000fa
:0400b0000e0300003b
:020000040000fa
:0400b4000e03000037
:020000040000fa
:0400b8000e03000033
:020000040000fa
:0400bc000e0300002f
:020000040000fa
:0400c0000e0300002b
:020000040000fa
:0400c4000e03000027
:020000040000fa
:0400c8000e03000023
:020000040000fa
:0400cc000e0300001f
:020000040000fa
:0400d0000e0300001b
:020000040000fa
:0400d4000e03000017
:020000040000fa
:0400d8000e03000013
:020000040000fa
:0400dc000e0300000f
:020000040000fa
:0400e0000e0300000b
:020000040000fa
:0400e4000e03000007
:020000040000fa
:0400e8000e03000003
:020000040000fa
:0400ec000e030000ff
:020000040000fa
:0400f0000e030000fb
:020000040000fa
:0400f4000e030000f7
:020000040000fa
:0400f8000e030000f3
:020000040000fa
:0400fc000e030000ef
:020000040000fa
:040100000e030000ea
:020000040000fa
:040104000e030000e6
:020000040000fa
:040108000e030000e2
:020000040000fa
:04010c000e030000de
:020000040000fa
:040110000e030000da
:020000040000fa
:040114000e030000d6
:020000040000fa
:040118000e030000d2
:020000040000fa
:04011c000e030000ce
:020000040000fa
:040120000e030000ca
:020000040000fa
:040124000e030000c6
:020000040000fa
:040128000e030000c2
:020000040000fa
:04012c000e030000be
:020000040000fa
:040130000e030000ba
:020000040000fa
:040134000e030000b6
:020000040000fa
:040138000e030000b2
:020000040000fa
:04013c000e030000ae
:020000040000fa
:040140000e030000aa
:020000040000fa
:040144000e030000a6
:020000040000fa
:040148000e030000a2
:020000040000fa
:04014c000e0300009e
:020000040000fa
:040150000e0300009a
:020000040000fa
:040154000e03000096
:020000040000fa
:040158000e03000092
:020000040000fa
:04015c000e0300008e
:020000040000fa
:040160000e0300008a
:020000040000fa
:040164000e03000086
:020000040000fa
:040168000e03000082
:020000040000fa
:04016c000e0300007e
:020000040000fa
:040170000e0300007a
:020000040000fa
:040174000e03000076
:020000040000fa
:040178000e03000072
:020000040000fa
:04017c000e0300006e
:020000040000fa
:040180000e0300006a
:020000040000fa
:040184000e03000066
:020000040000fa
:040188000e03000062
:020000040000fa
:04018c000e0300005e
:020000040000fa
:040190000e0300005a
:020000040000fa
:040194000e03000056
:020000040000fa
:040198000e03000052
:020000040000fa
:04019c000e0300004e
:020000040000fa
:0401a0000e0300004a
:020000040000fa
:0401a4000e03000046
:020000040000fa
:0401a8000e03000042
:020000040000fa
:0401ac000e0300003e
:020000040000fa
:040208000e030000e1
:020000040000fa
:04020c000e030000dd
:020000040000fa
:040210000e030000d9
:020000040000fa
:040214000e030000d5
:020000040000fa
:040218000e030000d1
:020000040000fa
:04021c000e030000cd
:020000040000fa
:040220000e030000c9
:020000040000fa
:040224000e030000c5
:020000040000fa
:040228000e030000c1
:020000040000fa
:04022c000e030000bd
:020000040000fa
:040230000e030000b9
:020000040000fa
:040234000e030000b5
:020000040000fa
:040238000e030000b1
:020000040000fa
:04023c000e030000ad
:020000040000fa
:040240000e030000a9
:020000040000fa
:040244000e030000a5
:020000040000fa
:040248000e030000a1
:020000040000fa
:04024c000e0300009d
:020000040000fa
:040250000e03000099
:020000040000fa
:040254000e03000095
:020000040000fa
:040258000e03000091
:020000040000fa
:04025c000e0300008d
:020000040000fa
:040260000e03000089
:020000040000fa
:040264000e03000085
:020000040000fa
:040268000e03000081
:020000040000fa
:04026c000e0300007d
:020000040000fa
:040270000e03000079
:020000040000fa
:040274000e03000075
:020000040000fa
:040278000e03000071
:020000040000fa
:04027c000e0300006d
:020000040000fa
:040280000e03000069
:020000040000fa
:040284000e03000065
:020000040000fa
:040288000e03000061
:020000040000fa
:04028c000e0300005d
:020000040000fa
:040290000e03000059
:020000040000fa
:040294000e03000055
:020000040000fa
:040298000e03000051
:020000040000fa
:04029c000e0300004d
:020000040000fa
:0402a0000e03000049
:020000040000fa
:0402a4000e03000045
:020000040000fa
:0402a8000e03000041
:020000040000fa
:0402ac000e0300003d
:020000040000fa
:0402b0000e03000039
:020000040000fa
:0402b4000e03000035
:020000040000fa
:0402b8000e03000031
:020000040000fa
:0402bc000e0300002d
:020000040000fa
:0402c0000e03000029
:020000040000fa
:0402c4000e03000025
:020000040000fa
:0402c8000e03000021
:020000040000fa
:0402cc000e0300001d
:020000040000fa
:0402d0000e03000019
:020000040000fa
:0402d4000e03000015
:020000040000fa
:0402d8000e03000011
:020000040000fa
:0402dc000e0300000d
:020000040000fa
:0402e0000e03000009
:020000040000fa
:0402e4000e03000005
:020000040000fa
:0402e8000e03000001
:020000040000fa
:0402ec000e030000fd
:020000040000fa
:0402f0000e030000f9
:020000040000fa
:0402f4000e030000f5
:020000040000fa
:0402f8000e030000f1
:020000040000fa
:0402fc000e030000ed
:020000040000fa
:040300000e030000e8
:020000040000fa
:040304000e030000e4
:020000040000fa
:040308000e030000e0
:020000040000fa
:04030c000e030000dc
:020000040000fa
:040310000e030000d8
:020000040000fa
:040314000e030000d4
:020000040000fa
:040318000e030000d0
:020000040000fa
:04031c000e030000cc
:020000040000fa
:040320000e030000c8
:020000040000fa
:040324000e030000c4
:020000040000fa
:040328000e030000c0
:020000040000fa
:04032c000e030000bc
:020000040000fa
:040330000e030000b8
:020000040000fa
:040334000e030000b4
:020000040000fa
:040338000e030000b0
:020000040000fa
:04033c000e030000ac
:020000040000fa
:040340000e030000a8
:020000040000fa
:040344000e030000a4
:020000040000fa
:040348000e030000a0
:020000040000fa
:04034c000e0300009c
:020000040000fa
:040350000e03000098
:020000040000fa
:040354000e03000094
:020000040000fa
:040358000e03000090
:020000040000fa
:04035c000e0300008c
:020000040000fa
:040360000e03000088
:020000040000fa
:040364000e03000084
:020000040000fa
:040368000e03000080
:020000040000fa
:04036c000e0300007c
:020000040000fa
:040370000e03000078
:020000040000fa
:040374000e03000074
:020000040000fa
:040378000e03000070
:020000040000fa
:04037c000e0300006c
:020000040000fa
:040380000e03000068
:020000040000fa
:040384000e03000064
:020000040000fa
:040388000e03000060
:020000040000fa
:04038c000e0300005c
:020000040000fa
:040390000e03000058
:020000040000fa
:040394000e03000054
:020000040000fa
:040398000e03000050
:020000040000fa
:04039c000e0300004c
:020000040000fa
:0403a0000e03000048
:020000040000fa
:0403a4000e03000044
:020000040000fa
:0403a8000e03000040
:020000040000fa
:0403ac000e0300003c
:020000040000fa
:100400004f8020000eff20000e0188000000000039
:10041000000020000000e000020032000001200087
:1004200020028800140007007e0007000000e000a2
:1004300003003a00006420000100200002003700a1
:100440000000200001002000810f70000100320038
:1004500014000700000020000000e000020032004d
:100460000000020000000000da05020000000000a9
:100470000040da000000fe004440a9000000200017
:100480000000e0000300320000002000a00188000e
:100490004440a800000006008a1f78008b1f7800e7
:1004a0000000060091018800800478000000eb0045
:1004b0001a003700e284440032a0b4009905ba0063
:1004c000e284440032a0b4009906ba00e2844400f9
:1004d00032a0b4000006eb00476fde00fd07b2005b
:1004e000636ce10003003a00ebff07000000eb0043
:1004f0000a003700606ce10004003a00005deb0088
:100500008b05e900fdff3e00040037006168e10053
:10051000010032000086eb000b00070019c7ba008b
:100520001905ba000e04e00003003a000a00e000da
:10053000e0ff3a0000000600fe07b2009e018800be
:100540008a047800f5ff3700395dba008b05e900b1
:100550000c003200295dba008b05e900080032006a
:100560000c00e00003003a00e284440032a0b40032
:10057000f5ff370019ddba008b05e900faff3a00f4
:100580008904e800e184440032a0b40000000600c1
:100590003400f800881f780008002000a8018800b7
:1005a0004f0478000000fa000028ef0087a0a9009f
:1005b0000080fa003400f90000400600801f780037
:1005c0003400f80000002000a00188000000fa00bc
:1005d00020002000004088008680a9000080fa00ea
:1005e0003400f9004f007800004006000000fa00d7
:1005f0008020a900ffff37000000fa008060a900fa
:10060000ffff37000000fa008040a900ffff37001d
:100610000000fa008080a900ffff37000000fa0008
:08062000ffff37000000050098
:020000040000fa
:100628000000fa0041a3a9004043a9004143a900e2
:10063800011a8000f0cf2f0000806000001a8800a7
:10064800011a8000f0f02f0000806000001a880076
:100658004223ef0020002000201a8800000120001b
:10066800401a88005023ef000080fa0000000600be
:100678000200fa00411a800000fe2f00008060008e
:100688000040a000401a880041e3a8004023a800c9
:1006980000dc250001002000690107004023a900b3
:1006a80000000000001a8000610060000000e00007
:1006b800fcff320001188000010f780041e3a90017
:1006c8001e0078000080fa00000006000200fa0010
:1006d800411a800000fe2f00008060002001b30056
:1006e800401a880041e3a8004023a80000dc250048
:1006f80001002000520107004023a900000000006b
:10070800001a8000610060000000e000fcff320079
:1007180001188000010f780041e3a9001e0078004d
:100728000080fa00000006000800fa00d0ff070069
:10073800000f7800ceff070010079800ccff0700d5
:10074800200798001e0090009e0040002e00900098
:1007580080804000b0aa2a000008b8000100d1003b
:10076800300798003e0090000080fa000000060064
:100778000400fa00100798009e009000010f78000e
:100788009e00900010032000808f50001800360053
:1007980000408000e20f50000a0032009e007800fe
:1007a800b0aa2a000008b8004208de0080007800dd
:1007b8000000eb00960007001000200000408800b1
:1007c8001e00370000408000e20f50001b003a0076
:1007d8000300370041062000100020008c000700ad
:1007e80000408000e20f5000faff3200130037008b
:1007f8009e00900020032000808f50000f003e00d4
:10080800004080000000e0000600320041062000a1
:10081800100020007e000700100020000040880023
:1008280006003700004080000000e00003003a00a6
:100838004106200020002000750007000080fa0013
:10084800000006000400fa00000f78001107980065
:100858001e0090009e007800808f50000200360035
:100868001e009000010037001e0078000080fa008a
:10087800000006000600fa0020079800aaff0700fb
:10088800100798000000eb00000f7800ae00900001
:100898001e00900000805000000f78001e007800b5
:1008a8000000e00001003d001e0fea001e00780075
:1008b800f80f500002003c002e00900006003700a0
:1008c8001e007800f80f5000020034001e0090004f
:1008d800010037000080eb000080fa0000000600ed
:1008e8000000fa004081a900010a800000ff2f00e3
:1008f800008060005000b300000a880040a1a900f1
:100908004161a900010a8000f08f2f00008060007b
:10091800000a8800010a8000f0f32f0000806000c0
:10092800000a880042e1a900110a800000fe2f0099
:1009380000806000100a88004701a800510a800062
:10094800f08f2f0000806000500a88004aa1a9009b
:100958005021ef00a00a2000a00a8800a00a200069
:10096800c00a8800a00a2000e00a880041e1a80027
:100978000080fa00000006000000fa006481a90067
:10098800210b800000ff2f00008060005000b300a2
:10099800200b880064a1a9006561a900210b8000d3
:1009a800f08f2f0000806000200b8800210b800052
:1009b800f0f32f0000806000200b880066e1a9009a
:1009c800310b800000fe2f0000806000300b880093
:1009d8006b01a800710b8000f08f2f000080600071
:1009e800700b88006ea1a9007421ef00a00a2000f6
:1009f800c00b8800a00a2000e00b8800a00a200095
:100a0800000c880065e1a8000080fa0000000600dc
:100a18000400fa00000f7800110798001e00780003
:100a28000000e00006003a0041e1a8009e009000a6
:100a3800c10a88007c21ef0065e1a8000b0037009f
:100a48001e007800e10f500006003a005821ef0020
:100a580041e1a80065e1a8009e009000e10b880034
:100a68000200370041e1a90065e1a9000080fa0011
:100a7800000006000600fa001007980021079800f9
:100a88000000eb00000f78009e0090008015200009
:100a9800808f50000a003600ae009000010f7800e9
:100aa8009e0078000000eb00d9ff07009e00900030
:100ab80060152000808f5000f7ff3e0019003700b6
:100ac8009e00900030112000808f500004003600f6
:100ad8009e009000f0142000808f50000e00360019
:100ae800ae009000800c2000808f5000040036007b
:100af8002e009000740f50001e0078000a00370086
:100b0800ae009000800c2000808f500004003e0052
:100b18002e009000040037002e00900002003700dd
:100b2800000000000080eb000080fa0000000600d2
:100b38000000fa00c982a800e384a9008240a90045
:100b480087a0a90097a0a800b2c0a800b2a0a800da
:100b5800b280a900c9c2a800e3c4a9008220a900e4
:100b68008680a9009680a800ae40a800ae20a80004
:100b7800ae00a800e004a900c002a900c8e2a900cc
:100b8800c962a900c082a800e084a800c8c2a80061
:100b9800e2c4a800c902a800e304a800c922a8006a
:100ba800e324a8000080fa00000006000600fa000e
:100bb8000000eb00000f78000000eb001007980021
:100bc8000000eb0020079800d9ff070044ff07004a
:100bd80069ff070092fe0700d3fe0700000f7800a8
:100be800bafe0700100798009e0078001e009000cb
:100bf800a0ff0700200798002e009000dcfe0700e9
:100c0800f5ff37000000fa000421ef000021ef0093
:100c18000080eb001008880021058000f0ff280004
:100c28000080600000c0a000200588008460a90042
:100c38009460a80005e1a9000080fa000000060001
:020000040000fa
:100c4800f03fb1000180b10006003500ee03090055
:100c580000000000403fb1000180b100fbff3d00f3
:100c68001000b000203fb0000200350000800900ed
:080c780000000000000006006e
:020000040000fa
:100c80000008000002000000000000000208000050
:100c9000020000000200000020030000000000002d
:020000040000fa
:0c0ca0000000fa000080fa0000000600ce
:020000040000fa
:0200000401f009
:04000000ffff0000fe
:020000040000fa
:0200000401f009
:04000800ffff0000f6
:020000040000fa
:0200000401f009
:04000c00f8ff0000f9
:020000040000fa
:0200000401f009
:04001000bfff00002e
:020000040000fa
:0200000401f009
:04001400ffff0000ea
:020000040000fa
:0200000401f009
:04001800ffff0000e6
:020000040000fa
:0200000401f009
:04001c00ffff0000e2
:00000001FF
